:1000000086C00000A2C00000A0C000009EC000008A
:100010009CC000009AC0000098C0000096C000007C
:1000200094C0000092C0000090C000008EC000008C
:100030008CC000008AC0000088C0000086C000009C
:1000400084C0000082C0000080C000007EC00000AC
:100050007CC000007AC0000078C0000076C00000BC
:1000600074C0000072C0000070C000006EC00000CC
:100070006CC000006AC0000068C0000066C00000DC
:1000800064C0000062C0000060C000000763423628
:10009000B79BD8A71A39685618AEBAAB558C1D3C19
:1000A000B7CC5763BD6DEDFD753EF6177231BF00DD
:1000B0000000803F08000000BE922449123EABAA17
:1000C000AA2ABECDCCCC4C3E00000080BEABAAAA72
:1000D000AA3E00000000BF000000803F00000000BA
:1000E00000084178D3BB4387D1133D190E3CC3BDF3
:1000F0004282AD2B3E68EC8276BED98FE1A93E4CA0
:1001000080EFFFBE01C4FF7F3F000000000011240C
:100110001FBECFEFD0E1DEBFCDBF11E0A0E0B1E068
:10012000E8E8F3E100E00BBF02C007900D92AE31AA
:10013000B107D9F721E0AEE1B1E001C01D92A533CE
:10014000B207E1F7BCD10C94C2095ACF909390004A
:1001500089B988E08AB986E08093950008955D9B0F
:10016000FECF8CB90895CF93DF93EC01888188236B
:1001700019F02196F4DFFACFDF91CF91089580E452
:1001800087B987E886B9089597B1907F8F70892BDA
:1001900087B986B1806486B93699FECF84B195B1AE
:1001A000089587B3806187BB88E683BF83B7836088
:1001B00083BF80E881BF089583B78C7C83BF88B3F9
:1001C0008F7E88BB089583B7806283BF83B78360C7
:1001D00083BF08958FB582688FBD8EB58A618EBD4D
:1001E0008FE39CE997BD86BD87B3806287BB089586
:1001F000853B08F084EB282F30E0A8EBBBE0B6D5B8
:1002000024EB30E040E050E08FD52C593F4F220FD7
:10021000331F3BBD2ABD089582B1806282B9EBE8ED
:10022000F0E0808189608083EAE8F0E080818A6084
:100230008083109283001092820008952FEF30E0A7
:1002400002C0359527958A95E2F72BBB089585B3B3
:100250008E7F85BB8AE08A95F1F700C085B3816007
:1002600085BB85E38A95F1F7000085B38E7F85BB5A
:10027000089540E355E760E070E099990DC0DB0117
:10028000CA010197A109B109452B462B472B31F033
:10029000AC01BD0181E005C080E003C0AC01BD013F
:1002A00080E0882329F085E08A95F1F70000E5CF0A
:1002B00020E030E0999B06C0203395E7390720F015
:1002C000982F03C0982F01C091E0992339F095E051
:1002D0009A95F1F700002F5F3F4FECCFAFE9B6E4FE
:1002E00045D5929582958F7089279F7089270895AB
:1002F000CF92DF92EF92FF92AADFBBDF83339105AB
:1003000010F082E390E08530910510F485E090E0F4
:1003100020912A0130E0F901EE0FFF1FE55DFE4F4D
:1003200091838083C901019665E070E0EAD48093EF
:100330002A0180912901853018F48F5F809329016B
:1003400080E0C12CD12C760120912901821770F414
:10035000E82FF0E0EE0FFF1FE55DFE4F20813181B9
:10036000C20ED31EE11CF11C8F5FEECF30E040E0E7
:1003700050E0C701B601D8D4C901FF90EF90DF90DB
:10038000CF9008958233910548F48630910540F06E
:10039000982F990F890F81958A56089580E00895C6
:1003A00084EB089520911E0130E0F901EE0FFF1F4C
:1003B000E15EFE4F91838083C901019665E070E0A4
:1003C000A0D480931E0190E020E030E0953060F4EE
:1003D000E92FF0E0EE0FFF1FE15EFE4F40815181FB
:1003E000240F351F9F5FF2CFC90165E070E089D40B
:1003F000CB0108958A30910514F48AE090E08333AC
:10040000910514F082E390E09C012A50310944E800
:1004100053E0249FC001259F900D349F900D11241F
:1004200068E270E06ED4CB018C599F4F0895CF9253
:10043000DF92EF92FF92009709F43AC0BC0180E08E
:1004400090E079D123E333E343E95FEB8DD226E6F5
:100450003FED40E456E425D26B017C0120E030E022
:1004600040E251E433D1882344F40F2EC12CD12C27
:10047000F0E2EF2EF1E4FF2EF02D20E030E040EF2F
:1004800051E4C701B60109D2181644F40F2EC12C4D
:10049000D12CF0EFEF2EF1E4FF2EF02D20E030E034
:1004A00040E05FE3C701B601ADD014D1CB0102C07B
:1004B0008EE190E0FF90EF90DF90CF900895CF9382
:1004C000DF93CDB7DEB7C054D1090FB6F894DEBFC5
:1004D0000FBECDBF8FEF8ABB1BBA84B3816084BBD4
:1004E00084B38D7F84BB87E690E030DE48DE59DE42
:1004F00071DE92DE2FEF83ED90E32150804090403B
:10050000E1F700C0000085E03FDE8C018F3E9240A5
:1005100010F00EEE12E0C801880F991F880F991F86
:10052000880F991F892F8695869588DE02331105DD
:1005300080F00E3B110578F00A34F1E01F0768F0F7
:10054000063D21E0120758F00236124050F480E5D3
:1005500009C080E007C084E105C088E203C08CE3E5
:1005600001C084E6EFEF8E9FC001112464E670E0C5
:10057000C8D37093830060938200BADE03DF38DE55
:1005800087E002DE54DFF82EE92E0CDF082F192F4A
:100590009F938F93EF92FF9280E091E09F938F93D0
:1005A0001F9280E48F93CE0101967C019F938F93DD
:1005B00000D4C701D8DD802F912F1CDF8C0103DE12
:1005C0000FB6F894DEBF0FBECDBF80E090E080177D
:1005D000910740F4EFE9FFE03197F1F700C0000028
:1005E0000196F5CFE9DD80E090E08017910708F0F3
:1005F0008ACFEFE9FFE03197F1F700C000000196E4
:10060000F4CF5058BB27AA270ED00DC1FED030F032
:1006100003D120F031F49F3F11F41EF4F3C00EF427
:10062000E095E7FBE9C0E92F0FD180F3BA17620725
:1006300073078407950718F071F49EF527C10EF42F
:10064000E0950B2EBA2FA02D0B01B90190010C01E2
:10065000CA01A0011124FF27591B99F0593F50F4FA
:10066000503E68F11A16F040A22F232F342F442752
:10067000585FF3CF469537952795A795F04053954A
:10068000C9F77EF41F16BA0B620B730B840BBAF01A
:100690009150A1F0FF0FBB1F661F771F881FC2F785
:1006A0000EC0BA0F621F731F841F48F48795779599
:1006B0006795B795F7959E3F08F0B3CF9395880F50
:1006C00008F09927EE0F97958795089571D008F453
:1006D00081E0089504D06894B111D9C00895BCD0C8
:1006E00088F09F5790F0B92F9927B751A0F0D1F01B
:1006F000660F771F881F991F1AF0BA95C9F712C0A5
:10070000B13081F0C3D0B1E00895C0C0672F782F19
:100710008827B85F39F0B93FCCF386957795679510
:10072000B395D9F73EF490958095709561957F4F7C
:100730008F4F9F4F0895E89409C097FB3EF4909522
:100740008095709561957F4F8F4F9F4F9923A9F0AA
:10075000F92F96E9BB279395F69587957795679539
:10076000B795F111F8CFFAF4BB0F11F460FF1BC07D
:100770006F5F7F4F8F4F9F4F16C0882311F096E910
:1007800011C0772321F09EE8872F762F05C06623BE
:1007900071F096E8862F70E060E02AF09A95660F77
:1007A000771F881FDAF7880F9695879597F9089530
:1007B000990F0008550FAA0BE0E8FEEF1616170672
:1007C000E807F907C0F012161306E407F50798F0DA
:1007D000621B730B840B950B39F40A2661F0232BF3
:1007E000242B252B21F408950A2609F4A140A6956F
:1007F0008FEF811D811D089597F99F6780E870E054
:1008000060E008959FEF80EC089500240A94161686
:10081000170618060906089500240A9412161306EE
:10082000140605060895092E0394000C11F488237C
:1008300052F0BB0F40F4BF2B11F460FF04C06F5F98
:100840007F4F8F4F9F4F089557FD9058440F551F6E
:1008500059F05F3F71F04795880F97FB991F61F042
:100860009F3F79F087950895121613061406551FB9
:10087000F2CF4695F1DF08C0161617061806991F25
:10088000F1CF86957105610508940895E894BB271A
:1008900066277727CB0197F908958ADF08F48FEF51
:1008A00008950BD0C0CFB1DF28F0B6DF18F0952344
:1008B00009F0A2CFA7CF1124EACFC6DFA0F3959FFE
:1008C000D1F3950F50E0551F629FF001729FBB2737
:1008D000F00DB11D639FAA27F00DB11DAA1F649FE3
:1008E0006627B00DA11D661F829F2227B00DA11D96
:1008F000621F739FB00DA11D621F839FA00D611D1C
:10090000221F749F3327A00D611D231F849F600D3C
:10091000211D822F762F6A2F11249F5750408AF075
:10092000E1F088234AF0EE0FFF1FBB1F661F771F01
:10093000881F91505040A9F79E3F510570F05CCF41
:10094000A6CF5F3FECF3983EDCF3869577956795ED
:10095000B795F795E7959F5FC1F7FE2B880F911D1F
:100960009695879597F90895FA01EE0FFF1F309637
:100970002105310599F16115710561F48038BFE3F6
:100980009B0749F168949038810561F08038BFEF8A
:100990009B0741F0992342F5FF3FE1053105210511
:1009A00011F1E8940894E795D901AA2329F4AB2F13
:1009B000BE2FF85FD0F310C0FF5F70F4A695E0F78C
:1009C000F73950F019F0FF3A38F49F779F930CD025
:1009D0000F9007FC905808953EF014CF60E070E04F
:1009E00080E89FE308954FE79F775F934F933F938E
:1009F0002F939ED02F913F914F915F9152DF05C071
:100A000019F40EF0F9CE42CFFDCE26DFC8F39638AA
:100A1000C0F707F80F92E8942BE33AEA48EB5FE758
:100A20004EDF0F920F920F924DB75EB70F92C0D06C
:100A3000ECE8F0E016D04F915F91EF91FF91E595D2
:100A4000EE1FFF1F49F0FE57E0684427EE0F441FDA
:100A5000FA95E1F74195550B32D00F9007FE26C06D
:100A60000895DF93CF931F930F93FF92EF92DF923E
:100A70007B018C01689405C0DA2EEF011EDFFE01B8
:100A8000E894A5912591359145915591AEF3EF01EB
:100A9000CADDFE019701A801DA9479F7DF90EF90A3
:100AA000FF900F911F91CF91DF9108959B01AC01B1
:100AB00060E070E080E89FE3AEC09ECE14C1CCDE63
:100AC000E8F39923D9F3940F511DBBF39150504093
:100AD00094F059F0882332F0660F771F881F9150E9
:100AE0005040C1F79E3F510544F7880F911D9695E0
:100AF000879597F908955F3FACF0983E9CF0BB272F
:100B0000869577956795B79508F4B1609395C1F789
:100B1000BB0F58F711F460FFE8CF6F5F7F4F8F4F27
:100B20009F4FE3CFB4CE0EF0DEC06CCE689464CE9F
:100B300093DEC8F39923D1F3C6F3DF93CF931F93CA
:100B40000F93FF92C92FDD2788232AF02197660F84
:100B5000771F881FDAF720E030E040E85FEB9FE383
:100B6000883920F0803E30F021968F774BDDE4EB22
:100B7000F0E003C047DDE1EEF0E073DF8B01BE0182
:100B8000EC01FB2E6F5771097595771F880B990B38
:100B9000D4DD28E132E741E35FE38FDEAF2D98013A
:100BA000AE01FF900F911F91CF91DF913CDD3BCEC5
:100BB000FA01DC01AA0FBB1F9B01AC01BF5728F44F
:100BC00022273327442750781FC0B75188F4AB2F12
:100BD0000024469537952795011CA395D2F3002054
:100BE00069F0220F331F441FB395DAF30DD009CDFE
:100BF00061307105A0E88A07B94630F49B01AC0169
:100C00006627772788279078309621F020833183D4
:100C10004283538308950CD006CEFEDD40F0F5DD0F
:100C200030F021F45F3F19F0E7CD511130CEEACD1D
:100C30000BDE98F39923C9F35523B1F3951B550B9C
:100C4000BB27AA2762177307840738F09F5F5F4F9F
:100C5000220F331F441FAA1FA9F333D00E2E3AF0E0
:100C6000E0E830D091505040E695001CCAF729D0FA
:100C7000FE2F27D0660F771F881FBB1F2617370749
:100C80004807AB07B0E809F0BB0B802DBF01FF2779
:100C900093585F4F2AF09E3F510568F0ADCDF7CDD8
:100CA0005F3FECF3983EDCF3869577956795B795B3
:100CB000F7959F5FC9F7880F911D9695879597F9CE
:100CC0000895E1E0660F771F881FBB1F6217730747
:100CD0008407BA0720F0621B730B840BBA0BEE1F5C
:100CE00088F7E09508959F3F31F0915020F4879563
:100CF00077956795B795880F911D9695879597F984
:100D0000089597FB072E16F4009406D077FD08D0BF
:100D10003CD007FC05D03EF4909581959F4F0895F7
:100D2000709561957F4F0895A1E21A2EAA1BBB1BF7
:100D3000FD010DC0AA1FBB1FEE1FFF1FA217B307A7
:100D4000E407F50720F0A21BB30BE40BF50B661FBD
:100D5000771F881F991F1A9469F760957095809581
:100D600090959B01AC01BD01CF010895A29FB001F8
:100D7000B39FC001A39F700D811D1124911DB29FCF
:100D8000700D811D1124911D0895AA1BBB1B51E1FB
:100D900007C0AA1FBB1FA617B70710F0A61BB70BEB
:100DA000881F991F5A95A9F780959095BC01CD0190
:100DB00008950F931F93CF93DF93CDB7DEB72E9790
:100DC0000FB6F894DEBF0FBECDBF0D891E898F8987
:100DD000988D26E02C831A83098397FF02C080E058
:100DE00090E801979E838D83AE01455E5F4F698DCC
:100DF0007A8DCE01019619D04D815E8157FD0AC0D2
:100E00002F813885421753070CF49A01F801E20F3D
:100E1000F31F10822E960FB6F894DEBF0FBECDBF23
:100E2000DF91CF911F910F9108952F923F924F9292
:100E30005F926F927F928F929F92AF92BF92CF926A
:100E4000DF92EF92FF920F931F93CF93DF93CDB773
:100E5000DEB72B970FB6F894DEBF0FBECDBF6C0187
:100E60007B018A01FC0117821682838181FFBFC149
:100E7000CE0101963C01F6019381F70193FD859126
:100E800093FF81917F01882309F4ADC1853239F444
:100E900093FD859193FF81917F01853221F4B60105
:100EA00090E0D6D1E8CF912C212C312CFFE1F31525
:100EB000D8F08B3279F038F4803279F08332A1F4B3
:100EC000232D20611DC08D3261F0803369F4232D04
:100ED000216016C0832D8260382EE32DE4603E2E03
:100EE0002AC0F32DF8601DC037FC2DC020ED280F5F
:100EF0002A3040F08E32B9F436FC75C1232D2064BF
:100F0000322E19C036FE06C08AE0989E200D1124AC
:100F1000922E11C0EAE02E9E200D1124222EF32DD8
:100F2000F0623F2E08C08C3621F4832D8068382E65
:100F300002C0883641F4F70193FD859193FF8191BA
:100F40007F018111B3CF982F9F7D9554933028F462
:100F50000C5F1F4F9FE399830DC0833631F08337B9
:100F600071F0833509F055C020C0F8018081898374
:100F70000E5F1F4F88248394912C530112C02801C7
:100F8000F2E04F0E511CF801A080B18036FE03C084
:100F9000692D70E002C06FEF7FEFC5014ED14C01AB
:100FA0008201F32DFF773F2E15C0280122E0420E6B
:100FB000511CF801A080B18036FE03C0692D70E09D
:100FC00002C06FEF7FEFC5012DD14C01F32DF0680A
:100FD0003F2E820133FC19C0822D90E088169906BD
:100FE000A0F4B60180E290E033D12A94F5CFF50168
:100FF00037FC859137FE81915F01B60190E028D1E1
:1010000021102A9421E0821A91088114910479F721
:10101000E1C0843611F0893639F5F80137FE07C092
:1010200060817181828193810C5F1F4F08C0608154
:101030007181072E000C880B990B0E5F1F4FF32D4B
:10104000FF763F2E97FF09C090958095709561952A
:101050007F4F8F4F9F4FF0683F2E2AE030E0A30173
:1010600033D1882E861844C0853731F4232D2F7E46
:10107000B22E2AE030E025C0932D997FB92E8F360D
:10108000C1F018F4883579F0AEC0803719F0883790
:1010900021F0A9C0E92FE061BE2EB4FE0DC0FB2DEA
:1010A000F460BF2E09C034FE0AC0292F2660B22E7C
:1010B00006C028E030E005C020E130E002C020E1B9
:1010C00032E0F801B7FE07C06081718182819381AF
:1010D0000C5F1F4F06C06081718180E090E00E5F61
:1010E0001F4FA301F1D0882E8618FB2DFF773F2ECE
:1010F00036FE0DC0232D2E7FA22E891458F434FE07
:101100000BC032FC09C0832D8E7EA82E05C0B82CE2
:10111000A32C03C0B82C01C0B92CA4FE0FC0FE0143
:10112000E80DF11D8081803321F49A2D997EA92E3E
:1011300009C0A2FE06C0B394B39404C08A2D867879
:1011400009F0B394A3FC10C0A0FE06C0B21480F452
:10115000280C922C9B180DC0B21458F4B60180E2F2
:1011600090E076D0B394F8CFB21418F42B1802C0E4
:10117000982C212CA4FE0FC0B60180E390E068D02B
:10118000A2FE16C0A1FC03C088E790E002C088E57B
:1011900090E0B6010CC08A2D867851F0A1FE02C005
:1011A0008BE201C080E2A7FC8DE2B60190E050D056
:1011B000891430F4B60180E390E04AD09A94F8CFD5
:1011C0008A94F301E80DF11D8081B60190E040D0D2
:1011D0008110F6CF222009F44ECEB60180E290E0D5
:1011E00037D02A94F7CFF6018681978102C08FEF1E
:1011F0009FEF2B960FB6F894DEBF0FBECDBFDF91E9
:10120000CF911F910F91FF90EF90DF90CF90BF9003
:10121000AF909F908F907F906F905F904F903F9096
:101220002F900895FC010590615070400110D8F78F
:10123000809590958E0F9F1F0895FC01615070401E
:1012400001900110D8F7809590958E0F9F1F0895FB
:101250000F931F93CF93DF93FB01238121FD03C0E5
:101260008FEF9FEF2CC022FF16C04681578124814B
:1012700035814217530744F4A081B1819D012F5F4E
:101280003F4F318320838C93268137812F5F3F4FDF
:101290003783268314C08B01EC01FB010084F185A8
:1012A000E02D0995892BE1F6D80116968D919C9138
:1012B0001797019617969C938E931697CE01DF9100
:1012C000CF911F910F910895FA01AA27283051F16B
:1012D000203181F1E8946F936E7F6E5F7F4F8F4F67
:1012E0009F4FAF4FB1E03ED0B4E03CD0670F781FC6
:1012F000891F9A1FA11D680F791F8A1F911DA11DAB
:101300006A0F711D811D911DA11D20D009F46894E3
:101310003F912AE0269F11243019305D3193DEF68B
:10132000CF010895462F4770405D4193B3E00FD041
:10133000C9F7F6CF462F4F70405D4A3318F0495D2C
:1013400031FD4052419302D0A9F7EACFB4E0A6950F
:101350009795879577956795BA95C9F70097610531
:10136000710508959B01AC010A2E06945795479587
:1013700037952795BA95C9F7620F731F841F951F7C
:08138000A01D0895F894FFCFB1
:101388005261773A20256420636D2C2046696C747D
:0E139800657265643A20256420636D0D0A00BD
:00000001FF
